:100000000C9463000C948B000C948B000C948B006C
:100010000C948B000C948B000C948B000C94D100EE
:100020000C948B000C948B000C948B000C940803A4
:100030000C948B000C948B000C948B000C948B0014
:100040000C94C4030C948B000C94B1060C94E3063E
:100050000C948B000C948B000C948B000C948B00F4
:100060000C948B000C948B0000000008000201002F
:100070000003040700000000000000000102040863
:100080001020408001020408102001020408102002
:10009000040404040404040402020202020203032E
:1000A00003030303000000002300260029000000D2
:1000B0000000250028002B0000000000240027007D
:1000C0002A00CC00130711241FBECFEFD8E0DEBFFB
:1000D000CDBF11E0A0E0B1E0E6E7F4E102C0059099
:1000E0000D92A433B107D9F722E0A4E3B1E001C037
:1000F0001D92A437B207E1F710E0C6ECD0E004C0CF
:100100002297FE010E94350AC23CD107C9F70E941E
:1001100057070C94390A0C94000026E040E855E299
:1001200060E070E087ED91E00C944F060F931F9311
:10013000CF93DF9384E391E00E949B0184E391E0FD
:100140000E94B4018C0184E391E00E94D301EC0190
:100150006AE071E087ED91E00E94A4074AE050E078
:10016000B80187ED91E00E9410086EE071E087ED24
:1001700091E00E94A4074AE050E0BE0187ED91E0C3
:100180000E94100864E670E080E090E0DF91CF917B
:100190001F910F910C943D0469E084E391E00C946D
:1001A00087011F920F920FB60F9211240F931F9386
:1001B0002F933F934F935F936F937F938F939F936F
:1001C000AF93BF93CF93EF93FF9380913A010E9437
:1001D0004305C82F20914101309142012F5F3F4FCD
:1001E00030934201209341018091A701843618F099
:1001F00085E080933C0190913C01933079F018F4B4
:10020000923039F070C0943011F1953009F44AC041
:100210006AC0C11168C01092A70129C0C13009F09D
:1002200062C0E091A70181E08E0F8093A701F0E00A
:100230008091410190914201E55CFE4F80871092D0
:1002400042011092410184E080933C014CC0C111F5
:1002500014C0E091A70181E08E0F8093A701F0E028
:100260008091410190914201E55CFE4F80871092A0
:1002700042011092410183E0E7CF809141019091CA
:1002800042018536910578F185E080933C010E941A
:100290000E0460933D0170933E0180933F01909363
:1002A000400121C00E940E0400913D0110913E01C9
:1002B00020913F0130914001601B710B820B930B29
:1002C000693C71058105910540F01092A7011092DB
:1002D00042011092410182E0B7CFC11104C01092D7
:1002E000420110924101FF91EF91CF91BF91AF91E7
:1002F0009F918F917F916F915F914F913F912F913E
:100300001F910F910F900FBE0F901F9018950F9394
:100310001F93CF93DF931F92CDB7DEB78C01698314
:100320000E94F2016981C8010F90DF91CF911F9166
:100330000F910C94F301CF93DF93EC010E940D0217
:1003400081110FC062E0CE010E948402CE010E94A2
:100350003B02CE010E94EC028C83CE010E94EC0293
:100360008D83DF91CF910895FC01648170E080E07E
:1003700090E00E94220920E030E04FE753E40E9421
:100380008C089B01AC0160E070E080E89FE30E9474
:10039000270820E030EC4FE754E40E94AE090E94A9
:1003A000F408CB010895FC01658170E080E090E0E5
:1003B0000E94220920E030E04FE753E40E948C08BD
:1003C0009B01AC0160E070E080E89FE30E94270899
:1003D00020E030EC4FE754E40E94AE090E94F4089C
:1003E000CB0108950895DC016C9370E0FB01E458A3
:1003F000FF4FE4911196EC931197FB01E057FF4FEB
:10040000E491F0E0EE0FFF1FEC55FF4F85919491C2
:1004100013969C938E9312970895FF920F931F93B8
:10042000CF93DF938C01FC01F180C281D38189815C
:100430008F2989839A818F2D809589238A8380EEE5
:1004400091E00E94650460E0F80180810E94D4047C
:1004500082E390E00E946504C88184E690E00E94F7
:100460006504FC2281E009F480E0DF91CF911F91C7
:100470000F91FF900895AF92BF92CF92DF92EF92CB
:10048000FF920F931F93CF93DF938C01FC01B180F8
:10049000C281D3810E940E046B017C018981AB2C47
:1004A000A0948A2189838A818B298A8388818B21E0
:1004B00069F00E940E046C197D098E099F0965364A
:1004C00071058105910590F381E013C088818B212E
:1004D000E9F389818B2989838A818A218A838EE144
:1004E00090E00E94650460E0F80180810E94D404DD
:1004F00080E0DF91CF911F910F91FF90EF90DF90FF
:10050000CF90BF90AF9008950F931F93CF93DF9339
:10051000EC01062F18E0F89460E088810E940D0538
:1005200061E088810E94D40485E090E00E94650427
:1005300000FF02C061E001C060E088810E940D05FB
:10054000069578948EE190E00E94650461E08881D0
:100550000E940D0585E090E00E9465041150D9F6D7
:1005600060E08881DF91CF911F910F910C94D404AA
:10057000CF92DF92EF92FF921F93CF93DF93FC0114
:100580001181C281D3810E940E046B017C0188819C
:10059000812359F00E940E046C197D098E099F0970
:1005A000643071058105910590F3F8948EE190E037
:1005B0000E946504C881789488E290E00E946504F6
:1005C0001C2381E009F480E0DF91CF911F91FF901F
:1005D000EF90DF90CF9008950F931F93CF93DF9309
:1005E000EC0160E088810E94D40408E010E0CE01B4
:1005F0000E94B80220E8829FC00111241695182B92
:100600000150A9F7812FDF91CF911F910F9108958C
:100610001F920F920FB60F9211242F933F934F9377
:100620005F936F937F938F939F93AF93BF93EF935A
:10063000FF938091A90187FF05C010928500109259
:1006400084001AC02091A901332727FD309580919D
:10065000A80190E0281739077CF48091A901992717
:1006600087FD9095FC01EE0FFF1FE80FF91FE6557F
:10067000FE4F808187FD15C08091A9018F5F809317
:10068000A9012091A901332727FD30958091A80168
:1006900090E028173907BCF48091A9018C305CF1F7
:1006A00012C08091A901992787FD9095FC01EE0F5A
:1006B000FF1FE80FF91FE655FE4F808160E08F773E
:1006C0000E940D05D9CF80918400909185000496F9
:1006D00080349C4918F480E49CE905C08091840032
:1006E00090918500049690938900809388008FEF05
:1006F0008093A90138C020918400309185008091B9
:10070000A901992787FD9095FC01EE0FFF1FE80FC7
:10071000F91FE655FE4F81819281820F931F9093BE
:100720008900809388008091A901992787FD909581
:10073000FC01EE0FFF1FE80FF91FE655FE4F808109
:1007400087FF11C08091A901992787FD9095FC0131
:10075000EE0FFF1FE80FF91FE655FE4F808161E0A5
:100760008F770E940D05FF91EF91BF91AF919F91FF
:100770008F917F916F915F914F913F912F910F904A
:100780000FBE0F901F9018951F920F920FB60F92E9
:1007900011242F933F938F939F93AF93BF93809197
:1007A000CF019091D001A091D101B091D2013091AF
:1007B000CE0123E0230F2D3720F40196A11DB11D9A
:1007C00005C026E8230F0296A11DB11D2093CE017E
:1007D0008093CF019093D001A093D101B093D20127
:1007E0008091D3019091D401A091D501B091D6010F
:1007F0000196A11DB11D8093D3019093D401A093C4
:10080000D501B093D601BF91AF919F918F913F9148
:100810002F910F900FBE0F901F9018952FB7F8943F
:100820006091CF017091D0018091D1019091D2015E
:100830002FBF08953FB7F8948091D3019091D401D0
:10084000A091D501B091D60126B5A89B05C02F3F38
:1008500019F00196A11DB11D3FBF6627782F892F82
:100860009A2F620F711D811D911D42E0660F771F47
:10087000881F991F4A95D1F70895CF92DF92EF9282
:10088000FF92CF93DF936B017C010E941A04EB016E
:10089000C114D104E104F10489F00E9426080E94E9
:1008A0001A046C1B7D0B683E734090F381E0C81AFC
:1008B000D108E108F108C851DC4FEACFDF91CF91B0
:1008C000FF90EF90DF90CF9008958230910538F03F
:1008D000880F991F880F991F05970197F1F70895C1
:1008E000789484B5826084BD84B5816084BD85B50B
:1008F000826085BD85B5816085BDEEE6F0E08081D2
:1009000081608083E1E8F0E01082808182608083F2
:10091000808181608083E0E8F0E080818160808375
:10092000E1EBF0E0808184608083E0EBF0E08081A7
:1009300081608083EAE7F0E0808184608083808149
:1009400082608083808181608083808180688083F1
:100950001092C1000895833081F028F4813099F01D
:100960008230A1F008958730A9F08830B9F0843042
:10097000D1F4809180008F7D03C0809180008F77BB
:1009800080938000089584B58F7702C084B58F7DF1
:1009900084BD08958091B0008F7703C08091B0002E
:1009A0008F7D8093B0000895CF93DF9390E0FC019A
:1009B000E458FF4F2491FC01E057FF4F84918823B6
:1009C00049F190E0880F991FFC01E854FF4FA59171
:1009D000B49182559F4FFC01C591D4919FB761118D
:1009E00008C0F8948C91209582238C93888182236F
:1009F0000AC0623051F4F8948C91322F30958323E1
:100A00008C938881822B888304C0F8948C91822BEC
:100A10008C939FBFDF91CF9108950F931F93CF9336
:100A2000DF931F92CDB7DEB7282F30E0F901E859E8
:100A3000FF4F8491F901E458FF4F1491F901E057F9
:100A4000FF4F04910023C9F0882321F069830E949D
:100A5000AB046981E02FF0E0EE0FFF1FE255FF4F7E
:100A6000A591B4919FB7F8948C91611103C0109532
:100A7000812301C0812B8C939FBF0F90DF91CF9179
:100A80001F910F910895CF93DF93282F30E0F90144
:100A9000E859FF4F8491F901E458FF4FD491F901CF
:100AA000E057FF4FC491CC2391F081110E94AB0419
:100AB000EC2FF0E0EE0FFF1FEC55FF4FA591B49126
:100AC0002C912D2381E090E021F480E002C080E0B1
:100AD00090E0DF91CF910895FC01818D228D90E00F
:100AE000805C9F4F821B91098F7399270895FC01A9
:100AF000918D828D981731F0828DE80FF11D858DD3
:100B000090E008958FEF9FEF0895FC01918D828D05
:100B1000981761F0828DDF01A80FB11D5D968C9151
:100B2000928D9F5F9F73928F90E008958FEF9FEF5C
:100B3000089589E097E0892B49F080E090E0892BC7
:100B400029F00E94090781110C9400000895FC010E
:100B5000848DDF01A80FB11DA35ABF4F2C91848D46
:100B600090E001968F739927848FA689B7892C937B
:100B7000A089B1898C9180648C93938D848D981316
:100B800006C00288F389E02D80818F7D80830895DF
:100B9000CF93DF93EC01888D8823C9F0EA89FB8924
:100BA000808185FD05C0A889B9898C9186FD0FC01B
:100BB0000FB607FCF5CF808185FFF2CFA889B989F0
:100BC0008C9185FFEDCFCE010E94A705E7CFDF9185
:100BD000CF910895CF92DF92FF920F931F93CF93FF
:100BE000DF931F92CDB7DEB76C0181E0D601589636
:100BF0008C9358975B969C915B975C968C915C97D5
:100C0000981307C05096ED91FC915197808185FD16
:100C10002EC0F601038D10E00F5F1F4F0F731127D9
:100C2000F02EF601848DF81211C00FB607FCF9CF33
:100C3000D6015096ED91FC915197808185FFF1CFBF
:100C4000C60169830E94A7056981EBCF838DE80FF8
:100C5000F11DE35AFF4F6083D6015B960C935B97BF
:100C60005296ED91FC915397808180620CC0D60121
:100C70005696ED91FC91579760835096ED91FC91BB
:100C8000519780818064808381E090E00F90DF91B4
:100C9000CF911F910F91FF90DF90CF900895BF9259
:100CA000CF92DF92EF92FF92CF93DF93EC016A0134
:100CB0007B01B22EE889F98982E08083411581EEBB
:100CC000580761057105A1F060E079E08DE390E0DF
:100CD000A70196010E94110A2150310941095109C9
:100CE0005695479537952795211580E1380798F057
:100CF000E889F989108260E874E88EE190E0A70144
:100D000096010E94110A2150310941095109569555
:100D1000479537952795EC85FD853083EE85FF85D2
:100D20002083188EEC89FD89B082EA89FB89808155
:100D300080618083EA89FB89808188608083EA8979
:100D4000FB89808180688083EA89FB8980818F7D2F
:100D50008083DF91CF91FF90EF90DF90CF90BF9095
:100D600008951F920F920FB60F9211242F938F9315
:100D70009F93EF93FF93E091E701F091E801808169
:100D8000E091ED01F091EE0182FD12C09081809121
:100D9000F0018F5F8F732091F101821751F0E09184
:100DA000F001F0E0E952FE4F958F8093F00101C011
:100DB0008081FF91EF919F918F912F910F900FBEA6
:100DC0000F901F9018951F920F920FB60F9211243B
:100DD0002F933F934F935F936F937F938F939F9343
:100DE000AF93BF93EF93FF9387ED91E00E94A70528
:100DF000FF91EF91BF91AF919F918F917F916F91F3
:100E00005F914F913F912F910F900FBE0F901F90C8
:100E1000189587ED91E00E946C0521E0892B09F47B
:100E200020E0822F08951092DA011092D90188EE05
:100E300093E0A0E0B0E08093DB019093DC01A0930D
:100E4000DD01B093DE0186E191E09093D8018093BB
:100E5000D70185EC90E09093E4018093E30184EC6A
:100E600090E09093E6018093E50180EC90E0909310
:100E7000E8018093E70181EC90E09093EA01809390
:100E8000E90182EC90E09093EC018093EB0186EC19
:100E900090E09093EE018093ED011092F00110929A
:100EA000F1011092F2011092F301089508950E9449
:100EB00070040E9456070E948D00C9E9D5E00E9487
:100EC00096002097E1F30E949905F9CFCF92DF9227
:100ED000EF92FF920F931F93CF93DF936C017A01F0
:100EE000EB01E60EF71E00E010E0CE15DF0561F025
:100EF0006991D601ED91FC910190F081E02DC60140
:100F00000995080F191FF1CFC801DF91CF911F91EB
:100F10000F91FF90EF90DF90CF90089561157105CC
:100F200081F0DB010D900020E9F7AD01415051093E
:100F3000461B570BDC01ED91FC910280F381E02D03
:100F4000099480E090E008950C948E0762E271E0CD
:100F50000C948E078F929F92AF92BF92CF92DF92A6
:100F6000EF92FF920F931F93CF93DF93CDB7DEB72E
:100F7000A1970FB6F894DEBF0FBECDBF7C01C42E83
:100F8000E52FCB01D22E19A221E02D1510F02AE079
:100F9000D22E8E010F5D1F4F8D2C912CA12CB12CC8
:100FA0006C2D7E2FA50194010E94110A8C2DD29EDA
:100FB00080191124015011098A3014F4805D01C098
:100FC000895CF8018083211531054105510521F027
:100FD000C22EE32FCA01E4CFB801C7010E948E07D9
:100FE000A1960FB6F894DEBF0FBECDBFDF91CF91B3
:100FF0001F910F91FF90EF90DF90CF90BF90AF9037
:101000009F908F9008952115310541F4DC01ED91F9
:10101000FC910190F081E02D642F09940C94AA07B3
:101020000F931F93CF93DF93EC019A01AB0160E024
:1010300070E00E9403088C01CE010E94A607800F79
:10104000911FDF91CF911F910F91089508955058EE
:10105000BB27AA270ED048C139D130F03ED120F0AD
:1010600031F49F3F11F41EF42EC10EF4E095E7FB1E
:1010700024C1E92F4AD180F3BA17620773078407A6
:10108000950718F071F49EF562C10EF4E0950B2EF1
:10109000BA2FA02D0B01B90190010C01CA01A001CA
:1010A0001124FF27591B99F0593F50F4503E68F125
:1010B0001A16F040A22F232F342F4427585FF3CF66
:1010C000469537952795A795F0405395C9F77EF437
:1010D0001F16BA0B620B730B840BBAF09150A1F080
:1010E000FF0FBB1F661F771F881FC2F70EC0BA0F06
:1010F000621F731F841F48F4879577956795B7958E
:10110000F7959E3F08F0B3CF9395880F08F0992785
:10111000EE0F9795879508950CD0E6C0DED040F08D
:10112000D5D030F021F45F3F19F0C7C0511110C184
:10113000CAC0EBD098F39923C9F35523B1F3951B9B
:10114000550BBB27AA2762177307840738F09F5FE8
:101150005F4F220F331F441FAA1FA9F333D00E2E57
:101160003AF0E0E830D091505040E695001CCAF7C4
:1011700029D0FE2F27D0660F771F881FBB1F261789
:1011800037074807AB07B0E809F0BB0B802DBF015C
:10119000FF2793585F4F2AF09E3F510568F08DC09E
:1011A000D7C05F3FECF3983EDCF386957795679563
:1011B000B795F7959F5FC9F7880F911D969587950D
:1011C00097F90895E1E0660F771F881FBB1F62172C
:1011D00073078407BA0720F0621B730B840BBA0BEA
:1011E000EE1F88F7E095089598D088F09F5790F00B
:1011F000B92F9927B751A0F0D1F0660F771F881F3C
:10120000991F1AF0BA95C9F712C0B13081F09FD07A
:10121000B1E008959CC0672F782F8827B85F39F018
:10122000B93FCCF3869577956795B395D9F73EF49A
:1012300090958095709561957F4F8F4F9F4F089542
:10124000E89409C097FB3EF4909580957095619560
:101250007F4F8F4F9F4F9923A9F0F92F96E9BB2716
:101260009395F695879577956795B795F111F8CF92
:10127000FAF4BB0F11F460FF1BC06F5F7F4F8F4FFD
:101280009F4F16C0882311F096E911C0772321F0F3
:101290009EE8872F762F05C0662371F096E8862F8B
:1012A00070E060E02AF09A95660F771F881FDAF7E2
:1012B000880F9695879597F9089597F99F6780E825
:1012C00070E060E008959FEF80EC089500240A9498
:1012D0001616170618060906089500240A94121611
:1012E0001306140605060895092E0394000C11F444
:1012F000882352F0BB0F40F4BF2B11F460FF04C0F1
:101300006F5F7F4F8F4F9F4F089557FD9058440F49
:10131000551F59F05F3F71F04795880F97FB991F54
:1013200061F09F3F79F08795089512161306140611
:10133000551FF2CF4695F1DF08C01616170618069E
:10134000991FF1CF86957105610508940895E89479
:10135000BB2766277727CB0197F908950BD0C4CF19
:10136000B5DF28F0BADF18F0952309F0A6CFABCF90
:101370001124EECFCADFA0F3959FD1F3950F50E073
:10138000551F629FF001729FBB27F00DB11D639F37
:10139000AA27F00DB11DAA1F649F6627B00DA11DDD
:1013A000661F829F2227B00DA11D621F739FB00D83
:1013B000A11D621F839FA00D611D221F749F3327F3
:1013C000A00D611D231F849F600D211D822F762F8C
:1013D0006A2F11249F5750408AF0E1F088234AF089
:1013E000EE0FFF1FBB1F661F771F881F91505040D5
:1013F000A9F79E3F510570F060CFAACF5F3FECF395
:10140000983EDCF3869577956795B795F795E795C0
:101410009F5FC1F7FE2B880F911D9695879597F9D1
:101420000895A1E21A2EAA1BBB1BFD010DC0AA1F25
:10143000BB1FEE1FFF1FA217B307E407F50720F03D
:10144000A21BB30BE40BF50B661F771F881F991FB8
:101450001A9469F760957095809590959B01AC0101
:10146000BD01CF010895EE0FFF1F0590F491E02D0F
:061470000994F894FFCF7F
:101476000000740280000100000053313D00533229
:101486003D0000000000EA0566076C058505770546
:10149600C8050D0A006E616E00696E66006F76669D
:0414A600002E000014
:00000001FF
